:10000000000800103D01000000000000000000009A
:100010003901000039010000390100000000000032
:100020000000000000000000000000003901000096
:100030003901000000000000390100003901000012
:1000400039010000390100003901000039010000C8
:1000500039010000390100003901000039010000B8
:1000600039010000390100003901000039010000A8
:100070003901000039010000390100003901000098
:100080003901000039010000390100003901000088
:100090003901000039010000390100003901000078
:1000A0003901000039010000390100003901000068
:1000B0003901000039010000390100003901000058
:1000C0003901000042F6DF6182B000230093019302
:1000D0000093009A82420BD20193019A8A4203D87C
:1000E000019A01320192F8E7009A01320092F0E79A
:1000F00002B07047F8B500F063F80D4A0D4D136972
:1001000001271B0C1B041361FF2216462A700023D3
:100110005C1CE4B207FA03F3DBB2082C2E7708BFAD
:1001200000242B764FF47A70FFF7CCFF2346EFE7DD
:1001300000C0024040C00920FEE70000684620F0F1
:1001400007018D4601B500F03BF8154A154B9A4260
:1001500006D1154A154B9A420BD0043A14490CE0CB
:100160001449043A8B42F4D252F8040F43F8040BBA
:10017000F8E7114B114A002106E08B42F9D252F800
:10018000040F43F8040BF8E7934202D243F8041B30
:10019000FAE7FFF7AFFFBDE801408546704700BFB3
:1001A000A402000000000010A402000000000010E3
:1001B00000000010000000100000001000000010FF
:1001C000334B2022C3F8A0211A46D2F8A011304B9D
:1001D0004906FAD50322C3F804212E4A0120C3F8A8
:1001E0000C01AA21C3F884205522C3F88C10C3F84F
:1001F0008C20C3F88000C3F88C10C3F88C20D3F88F
:10020000882012F0806F224AF9D00323C2F8803090
:10021000AA23C2F88C305523C2F88C30D2F888104B
:100220001B4B11F0407FF9D02322C3F8A420AA2150
:1002300055220120C3F8AC10C3F8AC20C3F8A000CD
:10024000C3F8AC10C3F8AC20D3F8A82012F4806F28
:100250000F4AF9D00323C2F8A030AA23C2F8AC3069
:100260005523C2F8AC30D2F8A810094B11F4407FE6
:10027000F9D009490022C3F8A821C3F8AC21C3F87A
:10028000C410C3F8C82143F23A021A60704700BF95
:0C02900000C00F4063000500DE8728045A
:04029C00F8B500BFF2
:0402A000F8B500BFEE
:00000001FF
